:020000040800F2
:1000000000000220C10B00081311000815110008A0
:1000100017110008191100081B110008000000004A
:100020000000000000000000000000005533000840
:100030001D11000800000000A93300080534000865
:10004000110C0008110C0008110C0008110C00081C
:10005000110C0008110C0008110C0008110C00080C
:10006000110C0008110C0008110C0008110C0008FC
:10007000110C0008110C0008110C0008110C0008EC
:10008000110C0008110C0008110C00080000000001
:10009000000000000000000000000000110C00083B
:1000A000110C0008110C0008110C0008110C0008BC
:1000B000110C0008110C0008110C0008110C0008AC
:1000C000110C0008110C0008110C0008110C00089C
:1000D000110C0008110C0008110C000800000000B1
:1000E000110C0008110C0008110C000800000000A1
:1000F000000000000000000000000000110C0008DB
:1001000000000000110C0008110C0008110C000880
:1001100000000000000000000000000000000000DF
:10012000110C0008110C0008110C0008110C00083B
:10013000110C00080000000000000000000000009A
:10014000000000000000000000000000110C00088A
:10015000110C0008110C0008110C0008110C00080B
:10016000110C0008110C0008000000000000000045
:10017000000000000000000000000000000000007F
:1001800000000000110C000800000000000000004A
:08019000110C0008110C00081D
:1001A00010B5054C237833B9044B13B10448AFF3B1
:1001B00000800123237010BDD0010020000000004A
:1001C0000864000808B5034B1BB103490348AFF3AB
:1001D000008008BD00000000D40100200864000871
:1001E00081F0004102E000BF83F0004330B54FEAE8
:1001F00041044FEA430594EA050F08BF90EA020F55
:100200001FBF54EA000C55EA020C7FEA645C7FEAE7
:10021000655C00F0E2804FEA5454D4EB5555B8BF0A
:100220006D420CDD2C4480EA020281EA030382EA7B
:10023000000083EA010180EA020281EA0303362D0D
:1002400088BF30BD11F0004F4FEA01314FF4801CE0
:100250004CEA113102D0404261EB410113F0004FF2
:100260004FEA03334CEA133302D0524263EB4303A9
:1002700094EA050F00F0A780A4F10104D5F1200E47
:100280000DDB02FA0EFC22FA05F2801841F10001A2
:1002900003FA0EF2801843FA05F359410EE0A5F176
:1002A00020050EF1200E012A03FA0EFC28BF4CF0A7
:1002B000020C43FA05F3C01851EBE37101F000455D
:1002C00007D54FF0000EDCF1000C7EEB00006EEB6A
:1002D0000101B1F5801F1BD3B1F5001F0CD34908F4
:1002E0005FEA30004FEA3C0C04F101044FEA44524B
:1002F00012F5800F80F09A80BCF1004F08BF5FEAD2
:10030000500C50F1000041EB045141EA050130BDB1
:100310005FEA4C0C404141EB0101013C28BFB1F5C3
:10032000801FE9D291F0000F04BF01460020B1FA0E
:1003300081F308BF2033A3F10B03B3F120020CDAE1
:100340000C3208DD02F1140CC2F10C0201FA0CF0BF
:1003500021FA02F10CE002F11402D8BFC2F1200C24
:1003600001FA02F120FA0CFCDCBF41EA0C019040DA
:10037000E41AA2BF01EB0451294330BD6FEA040423
:100380001F3C1CDA0C340EDC04F11404C4F120020E
:1003900020FA04F001FA02F340EA030021FA04F320
:1003A00045EA030130BDC4F10C04C4F1200220FA77
:1003B00002F001FA04F340EA0300294630BD21FAB5
:1003C00004F0294630BD94F0000F83F4801306BF7B
:1003D00081F480110134013D4EE77FEA645C18BF6F
:1003E0007FEA655C29D094EA050F08BF90EA020F06
:1003F00005D054EA000C04BF1946104630BD91EAFE
:10040000030F1EBF0021002030BD5FEA545C05D100
:100410004000494128BF41F0004130BD14F580043F
:100420003CBF01F5801130BD01F0004545F0FE41B3
:1004300041F470014FF0000030BD7FEA645C1ABFE8
:10044000194610467FEA655C1CBF0B46024650EA1F
:10045000013406BF52EA033591EA030F41F400214B
:1004600030BD00BF90F0000F04BF0021704730B5D1
:100470004FF4806404F132044FF000054FF00001A6
:1004800050E700BF90F0000F04BF0021704730B567
:100490004FF4806404F1320410F0004548BF40423C
:1004A0004FF000013EE700BF42004FEAE2014FEA91
:1004B00031014FEA02701FBF12F07F4393F07F4F6C
:1004C00081F06051704732F07F4208BF704793F06F
:1004D0007F4F04BF41F40021704730B54FF4607482
:1004E00001F0004521F000411CE700BF50EA010285
:1004F00008BF704730B54FF000050AE050EA01022E
:1005000008BF704730B511F0004502D5404261EB9D
:1005100041014FF4806404F132045FEA915C3FF4DE
:10052000D8AE4FF003025FEADC0C18BF03325FEA7B
:10053000DC0C18BF033202EBDC02C2F1200300FA2C
:1005400003FC20FA02F001FA03FE40EA0E0021FA51
:1005500002F11444BDE600BF0000000000000000EE
:1005600001F0FF01102A2BDB10F0070F08D010F864
:10057000013B013A8B422DD010F0070F42B3F6D168
:10058000F0B441EA012141EA014122F007047FF081
:1005900000070023F0E80256083C85EA010586EAD8
:1005A000010685FA47F5A3FA87F586FA47F6A5FA14
:1005B00087F68EB9EED1F0BC01F0FF0102F0070220
:1005C00032B110F8013B013A83EA010313B1F8D1CB
:1005D0000020704701387047002D06BF35460338AC
:1005E000073815F0010F07D1013015F4807F02BFE5
:1005F000013015F4C03F0130F0BC0138704700BF36
:10060000034613F8012B002AFBD1181A0138704752
:1006100070B54FF0FF0C4CF4E06C1CEA11541DBF98
:100620001CEA135594EA0C0F95EA0C0F00F0DEF863
:100630002C4481EA030621EA4C5123EA4C5350EA48
:10064000013518BF52EA033541F4801143F4801399
:1006500038D0A0FB02CE4FF00005E1FB02E506F02A
:100660000042E0FB03E54FF00006E1FB03569CF07F
:10067000000F18BF4EF0010EA4F1FF04B6F5007F85
:1006800064F5407404D25FEA4E0E6D4146EB0606F7
:1006900042EAC62141EA55514FEAC52040EA5E5080
:1006A0004FEACE2EB4F1FD0C88BFBCF5E06F1ED82A
:1006B000BEF1004F08BF5FEA500E50F1000041EB61
:1006C000045170BD06F0004646EA010140EA02000E
:1006D00081EA0301B4EB5C04C2BFD4EB0C0541EA30
:1006E000045170BD41F480114FF0000E013C00F345
:1006F000AB8014F1360FDEBF002001F0004170BD69
:10070000C4F10004203C35DA0C341BDC04F1140481
:10071000C4F1200500FA05F320FA04F001FA05F20D
:1007200040EA020001F0004221F0004110EBD370DA
:1007300021FA04F642EB06015EEA430E08BF20EA06
:10074000D37070BDC4F10C04C4F1200500FA04F3A9
:1007500020FA05F001FA04F240EA020001F000413B
:1007600010EBD37041F100015EEA430E08BF20EAAE
:10077000D37070BDC4F1200500FA05F24EEA020EF6
:1007800020FA04F301FA05F243EA020321FA04F025
:1007900001F0004121FA04F220EA020000EBD370DC
:1007A0005EEA430E08BF20EAD37070BD94F0000FDC
:1007B0000FD101F00046400041EB010111F4801F10
:1007C00008BF013CF7D041EA060195F0000F18BFC1
:1007D000704703F00046520043EB030313F4801FFD
:1007E00008BF013DF7D043EA0603704794EA0C0FB7
:1007F0000CEA135518BF95EA0C0F0CD050EA4106CD
:1008000018BF52EA4306D1D181EA030101F0004149
:100810004FF0000070BD50EA410606BF1046194671
:1008200052EA430619D094EA0C0F02D150EA01367D
:1008300013D195EA0C0F05D152EA03361CBF1046BE
:1008400019460AD181EA030101F0004141F0FE415D
:1008500041F470014FF0000070BD41F0FE4141F4E1
:10086000780170BD70B54FF0FF0C4CF4E06C1CEAE1
:1008700011541DBF1CEA135594EA0C0F95EA0C0F96
:1008800000F0A7F8A4EB050481EA030E52EA033551
:100890004FEA013100F088804FEA03334FF0805572
:1008A00045EA131343EA12634FEA022245EA11159F
:1008B00045EA10654FEA00260EF000419D4208BF50
:1008C000964244F1FD0404F5407402D25B084FEAFD
:1008D0003202B61A65EB03055B084FEA32024FF4A9
:1008E00080104FF4002CB6EB020E75EB030E22BF06
:1008F000B61A754640EA0C005B084FEA3202B6EBC6
:10090000020E75EB030E22BFB61A754640EA5C0074
:100910005B084FEA3202B6EB020E75EB030E22BF04
:10092000B61A754640EA9C005B084FEA3202B6EB05
:10093000020E75EB030E22BFB61A754640EADC00C4
:1009400055EA060E18D04FEA051545EA16754FEA26
:1009500006164FEAC30343EA52734FEAC2025FEA44
:100960001C1CC0D111F4801F0BD141EA00014FF0D3
:1009700000004FF0004CB6E711F4801F04BF0143A4
:100980000020B4F1FD0C88BFBCF5E06F3FF6AFAEC0
:10099000B5EB030C04BFB6EB020C5FEA500C50F150
:1009A000000041EB045170BD0EF0004E4EEA1131D3
:1009B00014EB5C04C2BFD4EB0C0541EA045170BDDA
:1009C00041F480114FF0000E013C90E645EA060E1E
:1009D0008DE60CEA135594EA0C0F08BF95EA0C0F4C
:1009E0003FF43BAF94EA0C0F0AD150EA01347FF494
:1009F00034AF95EA0C0F7FF425AF104619462CE76B
:100A000095EA0C0F06D152EA03353FF4FDAE1046CD
:100A1000194622E750EA410618BF52EA43067FF41E
:100A2000C5AE50EA41047FF40DAF52EA43057FF4AE
:100A3000EBAE12E74FF0FF3C06E000BF4FF0010CB9
:100A400002E000BF4FF0010C4DF804CD4FEA410C1D
:100A50007FEA6C5C4FEA430C18BF7FEA6C5C1BD0EA
:100A600001B050EA410C0CBF52EA430C91EA030F6B
:100A700002BF90EA020F0020704710F1000F91EAC8
:100A8000030F58BF994208BF90422CBFD8176FEA96
:100A9000E37040F0010070474FEA410C7FEA6C5C64
:100AA00002D150EA013C07D14FEA430C7FEA6C5C6B
:100AB000D6D152EA033CD3D05DF8040B704700BF97
:100AC0008446104662468C461946634600E000BFE5
:100AD00001B5FFF7B7FF002848BF10F1000F01BDB7
:100AE0004DF808EDFFF7F4FF0CBF012000205DF882
:100AF00008FB00BF4DF808EDFFF7EAFF34BF012007
:100B000000205DF808FB00BF4DF808EDFFF7E0FF9F
:100B100094BF012000205DF808FB00BF4DF808EDF0
:100B2000FFF7CEFF94BF012000205DF808FB00BF57
:100B30004DF808EDFFF7C4FF34BF012000205DF839
:100B400008FB00BF4FEA410C7FEA6C5C02D150EA1F
:100B5000013C0AD14FEA430C7FEA6C5C02D152EAB5
:100B6000033C02D14FF0000070474FF00100704786
:100B70004FEA410212F5001215D211D56FF47873C5
:100B8000B3EB625212D94FEAC12343F0004343EA68
:100B9000505311F0004F23FA02F018BF4042704743
:100BA0004FF00000704750EA013005D111F00040CD
:100BB00008BF6FF0004070474FF00000704700BF63
:100BC000DFF834D0002103E00C4B5B584350043174
:100BD0000B480C4B42189A42F6D30B4A02E0002312
:100BE00042F8043B094B9A42F9D300F0EFF803F0C6
:100BF00087FB00F080FA70470000022014690008AB
:100C000000000020D0010020D00100200475002049
:100C1000FEE7000008B503460B4A126842B10A4AD3
:100C200010680344094A934206D8074A136008BD76
:100C3000054A07491160F2E703F05CFB0C230360EF
:100C40004FF0FF30F3E700BFEC01002000FC012073
:100C500008750020F8B50138012803D80D4617465D
:100C600000240BE003F046FB092303604FF0FF373D
:100C70003846F8BD307800F089FD0134BC42F7DA1F
:100C80002E192B5D0A2BF5D10D2000F07FFDF1E729
:100C900008B503F02FFB582303604FF0FF3008BD69
:100CA00008B503F027FB582303604FF0FF3008BD61
:100CB000022801D80120704708B503F01BFB092367
:100CC0000360002008BD08B503F014FB582303603F
:100CD0004FF0FF3008BD08B5022804D84FF4005388
:100CE0004B60002008BD03F005FB092303604FF0B3
:100CF000FF30F7E70120704708B503F0FBFA5823EF
:100D000003604FF0FF3008BDFEE7000082B0002313
:100D100001930093294A136843F480331360274BEF
:100D20001B6803F400330093019B01330193009B84
:100D30001BB9019BB3F5A04FF1D1204B1B6813F4F5
:100D4000003F06D001230093009B012B04D002B08A
:100D5000704700230093F7E7184B1A6C42F080525B
:100D60001A6417490A6842F440420A609A689A6015
:100D70009A689A609A6842F480529A60114A5A605E
:100D80001A6842F080721A600C4B1B6813F0007FE7
:100D9000FAD00D4B40F203721A60A3F580639A6893
:100DA00022F003029A609A6842F002029A60034BB2
:100DB0009B6803F00C03082BF9D1C8E70038024008
:100DC0000070004019644107003C024010B5104C0F
:100DD000D4F8883043F47003C4F888300D4B1A6897
:100DE00042F001021A60002199601A6822F08472B0
:100DF00022F480321A60084A5A601A6822F480226B
:100E00001A60D960FFF782FF4FF00063A36010BD46
:100E100000ED00E0003802401030002400220F2ACC
:100E20004DD810B514E0C36894B264004FF0030EBF
:100E30000EFA04FE23EA0E03C360C36891F807E0CC
:100E40000EFA0CFC43EA0C03C36001320F2A35D8BA
:100E5000012393400C68A343F7D104684FEA420C86
:100E6000032303FA0CF36FEA030E24EA030303607F
:100E700003680C7904FA0CF4234303600B79013BFB
:100E8000DBB2012BCFD883680EEA0303836083684B
:100E90004C7904FA0CF42343836043681FFA82FE02
:100EA000012404FA0EF423EA0403436044688B79B6
:100EB00003FA0EF39BB223434360B4E710BD7047BF
:100EC0000904816170470AB1816170470904816139
:100ED000704710B401F007039B009A40C90808311D
:100EE00050F821404FF00F0C0CFA03F324EA0303EF
:100EF00040F8213050F82130134340F821305DF89C
:100F0000044B704710B4284B9B6803F00C03042B70
:100F10001ED0082B1FD0002B42D1244B0360224A45
:100F20009368C3F303132249CC5C0368E340436036
:100F30009468C4F382240C5D23FA04F484609268FC
:100F4000C2F342328A5CD340C3605DF8044B704701
:100F5000184B0360E3E7144B59685A6802F03F02EC
:100F600011F4800F12D0134BB3FBF2F30E4A526808
:100F7000C2F3881202FB03F30B4A5268C2F3014228
:100F800001325200B3FBF2F30360C8E7074BB3FB37
:100F9000F2F3054A5268C2F3881202FB03F3EBE74F
:100FA000024B0360BBE700BF003802400024F4009E
:100FB0002064000840787D0121B1054A136B03438A
:100FC00013637047024A136B23EA000313637047ED
:100FD0000038024021B1054A536C03435364704703
:100FE000024A536C23EA00035364704700380240FE
:100FF00030B585B004460D46038A9BB223F44053B6
:10100000CA881343038283899BB223F4B05323F02D
:101010000C03898828896A8901430A431343A38101
:10102000A38A9BB223F44073AA891343A382684620
:10103000FFF768FF1F4B9C4205D003F580639C427D
:1010400001D0029B00E0039BA28912F4004F1FD144
:1010500003EB830303EB83032A689200B3FBF2F3F1
:10106000154AA2FB031252091101642002FB10333E
:10107000A28912F4004F14D11B0132330E4AA2FB95
:101080000323C3F343130B439BB2238105B030BD4D
:1010900003EB830303EB83032A685200B3FBF2F3F1
:1010A000DEE7DB003233044AA2FB0323C3F342131F
:1010B0000B43E9E7001001401F85EB5129B18389FB
:1010C0009BB243F400538381704783899BB223F41E
:1010D00000539BB283817047C1F308018180704740
:1010E0008088C0F3080070470388194201D00120AE
:1010F00070470020704708B5FFF768FE00F001F860
:10110000FEE708B500F06EF900F052FA01F0FEFAC1
:10111000FEE77047FEE7FEE7FEE7FEE770470000E8
:1011200070B50026354603E0D6B1642001F076FCA8
:1011300000F09EFA0446854201D005460026631E53
:10114000042B55D801A252F823F000BF2911000842
:101150007B1100089D110008BB110008D311000885
:101160000121084600F01CFA642001F057FC002120
:10117000084600F015FA2646D7E70121002000F0C6
:101180000FFA4FF4FA7001F049FC0021084600F014
:1011900007FA4FF4FA7001F041FCC9E70121002081
:1011A00000F0FEF9962001F039FC0021084600F01D
:1011B000F7F9962001F032FCBAE70121002000F097
:1011C000EFF940F6B83001F029FC002000F04AFAAF
:1011D000AEE70021012000F0E3F9962001F01EFCAB
:1011E0000021084600F0DCF9962001F017FC9FE78B
:1011F0000121002000F0D4F9642001F00FFC00214F
:10120000084600F0CDF940F26C7001F007FC8FE762
:1012100010B5ADF57C7D0024F794F894F994FA9418
:10122000FB9420222146EEA803F012F840F282221D
:1012300021464DA803F00CF808E020220021EEA87A
:1012400003F006F84FF4FA7001F0E8FB0022F79281
:10125000F892F992FA92FB92EEA91E4B186800F0F0
:1012600007FF0128E9D19DF8D133002BE5D04DAC23
:101270002246EEA9F7A800F03BF900231A462146C2
:101280001548006800F0F7FCDDE9F023CDE90A23FA
:10129000DDE9EE23CDE90823F998FFF705F9CDE95B
:1012A0000601F898FFF700F9CDE90401F798FFF778
:1012B000FBF8CDE90201012300930023074A4FF414
:1012C00080710DA802F00EFF4FF4FA7001F0A6FB3A
:1012D000BCE700BF100200200C02002030640008B0
:1012E00030B5ADF52B7D20220021A2A802F0B0FF81
:1012F00040F28222002101A802F0AAFF01F038FA90
:10130000054639E09DF8030000F040FA0DF10300B6
:1013100000F0ACFA0128F5D001F02AFA431BB3F52E
:10132000967FF3D3254603E09DF8030000F02EFAE4
:101330000DF1030000F09AFA0128F5D0A2A800F000
:1013400097F89DF8A1324BB3042000F077F90223FF
:101350000022A2A91348006800F08DFC002201A918
:10136000114B186800F043FD012802D101A800F0DC
:10137000BDF8142001F052FB01F0FAF90446421BBB
:1013800040F6B7339A42D3D9084800F091FA08489A
:1013900000F082FA01F0ECF90546BDE7042000F008
:1013A00057F9D4E7100200200C02002090640008D6
:1013B000A864000808B500F0EFF800F0F5F800F0B8
:1013C000FFF9012000F044F9022000F037F9102065
:1013D00000F034F9082000F031F9002001F02CF978
:1013E00008BD000010B582B0154B01930423009393
:1013F00000234FF480621349134801F0D9F8134BCE
:1014000001930224009400234FF4407210491148C4
:1014100001F0CEF8104B0193009400234FF440727A
:101420000E490F4801F0C4F80E4B019301230093BD
:10143000002380220C490D4801F0BAF802B010BD1B
:10144000FC010020B0640008B5130008F80100207A
:10145000BC640008E1120008F4010020C864000820
:1014600011120008F0010020D864000821110008C2
:1014700068B3F8B50446184B1D6801351D6020227D
:10148000002102F0E5FE2846FEF7ECFF10A3D3E9A9
:101490000023FFF7BDF806460F4600220F4BFEF76C
:1014A000A5FEC4E9000100220D4B30463946FEF787
:1014B0009DFEC4E902010B4B23610B4B63610C23BE
:1014C00023760123637601F053F9E061F8BD70479C
:1014D0008DEDB5A0F7C6B03E0002002000004240EE
:1014E00000005E400000F0410000A0407047000096
:1014F00000284BD02DE9F04F8DB00F46144606461C
:10150000002940D0002A3ED040F28222002120460D
:1015100002F09EFE1E4D0FCD20606160A260E36070
:101520002A88AB782282A37404F1800596F8108093
:1015300097F81990D6F800A0D6F804B0D7E90023A0
:10154000D7E90201CDE90A01CDE90823B068FEF729
:10155000ABFFCDE906015846FEF7A6FFCDE9040131
:101560005046FEF7A1FFCDE90201CDF800904346B9
:10157000084A4FF40071284602F0B4FD2846FFF7F0
:101580003FF8A4F880020DB0BDE8F08F704700BFAF
:10159000E0640008F464000808B500F07DF808BDB8
:1015A00008B500F09BF808BD08B500F0ABF808BD21
:1015B00008B500221421012000F035FB0D4B186006
:1015C00000222021012000F02EFB0B4B186000228E
:1015D00040F28221042000F026FB084B1860042012
:1015E00000F0E4FB064B186000F08DF9054B186025
:1015F00008BD00BF14020020100200200C020020D1
:1016000008020020040200204FF0500383F31188E9
:10161000BFF36F8FBFF34F8FFEE7000008B511B126
:10162000054800F05BF94FF0500383F31188BFF3D6
:101630006F8FBFF34F8FFEE75065000808B5014676
:10164000024B186808B100F078F908BD04020020C8
:1016500008B50146024B186808B100F061F908BDF1
:1016600004020020014B1870704700BF18020020D0
:10167000014B1878704700BF1802002010B5054CC8
:10168000002202212046FFF71EFC04212046FFF71E
:1016900017FC10BD0000024030B583B001210846A0
:1016A000FFF78AFC0623009301238DF80430002302
:1016B0008DF8063002228DF805208DF80730064C93
:1016C00069462046FFF7AAFB69462046FFF7A6FBBE
:1016D000FFF7D4FF03B030BD0000024038B50C4620
:1016E000074D021E18BF012202212846FFF7EBFB1F
:1016F000221E18BF012204212846FFF7E4FB38BD53
:101700000000024030B587B001210846FFF754FCC5
:1017100001212020FFF75EFC1A4D08220B212846EC
:10172000FFF7D7FB08220C212846FFF7D2FB4FF426
:10173000C053049302238DF8143000248DF8164012
:101740008DF817408DF8153004A92846FFF766FB81
:101750004FF4E1330093ADF80440ADF80640ADF826
:1017600008400C23ADF80A30ADF80C40064C694631
:101770002046FFF73DFC01212046FFF79FFC07B004
:1017800030BD00BF000002400014014010B5044607
:1017900080210548FFF7A8FC0028F9D0214602481F
:1017A000FFF79AFC10BD00BF0014014010B50446BD
:1017B00002E00134FFF7EAFF20780028F9D110BDDC
:1017C00070B586B001210846FFF7F6FB0121102015
:1017D000FFF700FC1C4D072209212846FFF779FB83
:1017E00007220A212846FFF774FB4FF4C0630493D5
:1017F00002238DF8143000248DF8164001268DF850
:1018000017608DF8153004A92846FFF707FB4FF441
:10181000E1330093ADF80440ADF80640ADF8084060
:101820000C23ADF80A30ADF80C4004F1804404F507
:10183000883469462046FFF7DBFB31462046FFF738
:101840003DFC06B070BD00BF0000024010B504466C
:1018500080210548FFF748FC0028F9D021460248BE
:10186000FFF73AFC10BD00BF0010014038B578B159
:10187000054620210748FFF737FC0446012802D01F
:101880000024204638BD0348FFF72AFC2870F8E7FB
:101890000024F6E70010014010B5044618B905E031
:1018A000FFF7D4FF013420780028F9D110BD0000E3
:1018B00088B110B50446084B186818B14FF0FF31D5
:1018C00000F0C0FB2046FFF771FF034B186808B11A
:1018D00000F077FA10BD7047080200200FB410B571
:1018E000C2B0449A52B145AB019302AC4FF480713F
:1018F000204602F09FFC2046FFF7DAFF42B0BDE829
:10190000104004B0704710B5182001F02BFE0446BB
:1019100020B1002340F8043B00F040F8204610BD01
:1019200070B505460C4601F025FD2E6826EA040434
:101930002C6001F02FFD304670BDF8B504460D4611
:1019400000F10C0600F00CFF206923682B43236094
:1019500000270AE0216832EA010105D111E021687F
:1019600041F0007101F06EF92846B0420ED0456892
:10197000036823F07F4213F0806FEBD1216811429E
:10198000F2D013F0807FEAD01743E8E7256825EA14
:101990000705256000F0A2FF2846F8BD00F1080306
:1019A00043604FF0FF328260C36003610023036035
:1019B000704700230361704743684B609A688A60F0
:1019C000516099600861036801330360704730B467
:1019D0000D68B5F1FF3F11D000F108031C465B68AC
:1019E0001A68AA42FAD963684B6099608C6061609A
:1019F000086103680133036030BC70470469F2E793
:101A00000369416882688A60416851605A6882420D
:101A100005D000220261186801381860704782689A
:101A20005A60F6E70346406A18B11B6B1868C0F1AC
:101A30000500704710B5044601F09CFCA26BE36BF7
:101A40009A4204D0002401F0A5FC204610BD0124D8
:101A5000F9E710B5044601F08DFCA36B23B901240E
:101A600001F098FC204610BD0024F9E770B504464B
:101A70001546866B026C5AB903681BB1002001360B
:101A8000A66370BD806801F0E3F90023A360F6E768
:101A90006DB9406802F05BFC6368226C13446360BC
:101AA000A268934219D3236863602846E7E7C068B9
:101AB00002F04DFCE368226C51429B1AE3602268FD
:101AC000934202D2A3680B44E360022D01D00020B0
:101AD000D5E726B1013E0020D1E72846CFE7002018
:101AE000CDE70346026C6AB110B50846D9681144C7
:101AF000D9609C68A14201D31968D960D96802F005
:101B000026FC10BD704738B5054601F033FC95F84A
:101B1000454064B201E0013C64B2002C0ADD6B6A0E
:101B200043B105F1240001F01DF80028F3D001F0C5
:101B30001FF9F0E7FF2385F8453001F02BFC01F099
:101B400019FC95F8444064B201E0013C64B2002CF9
:101B50000ADD2B6943B105F1100001F003F80028FC
:101B6000F3D001F005F9F0E7FF2385F8443001F0E8
:101B700011FC38BD002844D038B50D460446C36B6F
:101B8000002B40D0026C0021A2FB032313B919B132
:101B9000002039E00121FAE701F0ECFB2368E26B59
:101BA000216C01FB0230A0600020A0636360013A59
:101BB00002FB0133E360FF2384F8443084F84530AE
:101BC000B5B923691BB901F0E5FB01201CE004F164
:101BD000100000F0C7FF0028F5D04FF0E0234FF0D1
:101BE0008052C3F8042DBFF34F8FBFF36F8FEAE726
:101BF00004F11000FFF7D2FE04F12400FFF7CEFE3F
:101C0000E1E700207047002038BD10B50346029878
:101C10000C4631B90060C36304640121FFF7AAFFD9
:101C200010BD0260F7E7F0B583B0E0B10C4617468F
:101C300005460023A4FB00129AB9C3B904FB05F0C2
:101C400010F1490F15D8483001F08CFC064658B108
:101C500000903B4600F1480221462846FFF7D5FF99
:101C600002E00123E9E70026304603B0F0BD00267C
:101C7000FAE70026F8E7F0B585B004460F46019272
:101C80001D4600263DE02A4639462046FFF7EEFE77
:101C9000636A7BB948B14FF0E0234FF08052C3F83C
:101CA000042DBFF34F8FBFF36F8F01F073FB012043
:101CB00005B0F0BD04F1240000F054FF0028F4D07A
:101CC0004FF0E0234FF08052C3F8042DBFF34F8F45
:101CD000BFF36F8FE9E701F05DFB0020E8E702A8A2
:101CE00001F00AF8012619E0002384F8443021E0CD
:101CF000002384F8453023E02046FFF704FF00F07E
:101D0000EDFD01F037FBA26BE36B9A42BBD3022DD2
:101D1000B9D0019B002BDED0002EE0D001F03AFBC1
:101D200000F01EFD01F026FB94F8440040B2B0F133
:101D3000FF3FD9D094F8450040B2B0F1FF3FD7D073
:101D400001F028FB01A902A800F0E2FFD8B9204663
:101D5000FFF770FE0028CFD0019904F1100000F0C9
:101D6000D5FE2046FFF7CFFE00F0B8FD0028C8D111
:101D70004FF0E0234FF08052C3F8042DBFF34F8F94
:101D8000BFF36F8FBDE72046FFF7BDFE00F0A6FD55
:101D900000208DE748B108B5002181600160C16075
:101DA0000B460A46FFF767FF08BD704710B50246AD
:101DB00000210120FFF737FF0446FFF7EBFF204625
:101DC00010BD38B50446856800F0D8FF854201D0C3
:101DD000002038BDE368013BE3600BB10120F8E768
:101DE0001A4619462046FFF746FF0120F1E7F0B5F5
:101DF00085B004460F46019200263EE03946204653
:101E0000FFF76FFE013DA563236923B901F0C2FA14
:101E1000012005B0F0BD04F1100000F0A3FE002881
:101E2000F4D04FF0E0234FF08052C3F8042DBFF3FD
:101E30004F8FBFF36F8FE9E701F0ACFA0020E8E7BE
:101E400002A800F059FF012621E0002384F8443065
:101E500029E0002384F845302BE02046FFF753FEAD
:101E600000F03CFD09E02046FFF74DFE00F036FD96
:101E70002046FFF7EEFD00283FD101F07BFAA56B6D
:101E8000002DBBD1019B002BD6D0002ED8D001F065
:101E900081FA00F065FC01F06DFA94F844305BB211
:101EA000B3F1FF3FD1D094F845305BB2B3F1FF3FBF
:101EB000CFD001F06FFA01A902A800F029FF002895
:101EC000D1D12046FFF7C5FD0028C6D0019904F105
:101ED000240000F01BFE2046FFF715FE00F0FEFC7C
:101EE0000028CAD14FF0E0234FF08052C3F8042DF0
:101EF000BFF34F8FBFF36F8FBFE7002089E770B547
:101F000084B0044601910026354649E0013BA363B5
:101F1000236833B1236943B901F03CFA012004B0CE
:101F200070BD01F02DF8A060F4E704F1100000F09E
:101F300019FE0028F0D04FF0E0234FF08052C3F894
:101F4000042DBFF34F8FBFF36F8FE5E701F022FA47
:101F50000020E4E702A800F0CFFE01252AE00023DC
:101F600084F8443032E0002384F8453034E001F056
:101F700001FAA06800F008FF064601F00BFA3BE00A
:101F80002046FFF7C0FD00F0A9FC09E02046FFF75E
:101F9000BAFD00F0A3FC2046FFF75BFD002842D10C
:101FA00001F0E8F9A36B002BB0D1019B002BCDD041
:101FB000002DCFD001F0EEF900F0D2FB01F0DAF9FC
:101FC00094F844305BB2B3F1FF3FC8D094F8453089
:101FD0005BB2B3F1FF3FC6D001F0DCF901A902A862
:101FE00000F096FE0028D1D12046FFF732FD0028F0
:101FF000C6D02368002BBAD0019904F1240000F068
:1020000085FD2046FFF77FFD00F068FC0028C7D162
:102010004FF0E0234FF08052C3F8042DBFF34F8FF1
:10202000BFF36F8FBCE70EB9002078E701F0A2F98B
:102030002046FFF7F7FC0146A06800F051FF01F0D1
:10204000A9F9F1E770B504460D46866800F096FEE2
:10205000864208D029462046FFF751FF38B1E36891
:102060000133E36003E0E3680133E360012070BD06
:1020700070B584B004460E46019200253EE0E56846
:1020800031462046FFF72DFDE560636A23B901F074
:1020900081F9012004B070BD04F1240000F062FD5C
:1020A0000028F4D04FF0E0234FF08052C3F8042D05
:1020B000BFF34F8FBFF36F8FE9E701F06BF900209B
:1020C000E8E702A800F018FE012521E0002384F8CB
:1020D000443029E0002384F845302BE02046FFF708
:1020E00012FD00F0FBFB09E02046FFF70CFD00F0BD
:1020F000F5FB2046FFF7ADFC00283FD101F03AF98F
:10210000A36B002BBBD1019B002BD6D0002DD8D0C8
:1021100001F040F900F024FB01F02CF994F8443070
:102120005BB2B3F1FF3FD1D094F845305BB2B3F16D
:10213000FF3FCFD001F02EF901A902A800F0E8FD81
:102140000028D1D12046FFF784FC0028C6D0019991
:1021500004F1240000F0DAFC2046FFF7D4FC00F084
:10216000BDFB0028CAD14FF0E0234FF08052C3F8E6
:10217000042DBFF34F8FBFF36F8FBFE7002089E7B8
:1021800021B110B40C4600210B4605E070470F4901
:1021900001EBC30114E00133072B10D80B4A02EB0B
:1021A000C30252688242F2D00029F4D1074A52F8A1
:1021B0003320002AEFD1054901EBC301EBE709B158
:1021C0000C6048605DF8044B704700BF1C020020A3
:1021D00070B504460D46164601F0CCF894F844302C
:1021E0005BB2B3F1FF3F0DD094F845305BB2B3F171
:1021F000FF3F0BD001F0CEF8A36B5BB12046FFF799
:1022000082FC70BD002384F84430EDE7002384F89D
:102210004530EFE73246294604F1240000F084FC03
:10222000ECE70000074B1B681B6823B9064B4FF017
:10223000FF321A607047034B1B68DB681A68024B59
:102240001A607047CC0200206402002010B50446DA
:10225000006B01F0FDF9204601F0FAF910BD2DE9FF
:10226000F04780460D4617469946089EDDF824A0A3
:102270000A9C9200A521206B01F0EAFF236B07F175
:102280008042013A03EB820727F007078DB14FF038
:10229000000CBCF10F0F09D815F80C3004EB0C0240
:1022A00082F8343013B10CF1010CF2E7002384F80A
:1022B0004330042E00D90426E6626664201DFFF731
:1022C00078FB04F11800FFF774FB2461C6F10506E2
:1022D000A66164624A464146384601F025F820600E
:1022E000BAF1000F01D0CAF80040BDE8F0872DE92F
:1022F000F04385B006460F4614469846900001F01C
:1023000031F98146F8B1542001F02CF90546B0B1FD
:102310005422002101F09CFFC5F830900023039364
:1023200002950D9B01930C9B009343462246394630
:102330003046FFF794FF284605B0BDE8F0834846D5
:1023400001F086F9F7E70546F5E7000038B5002407
:1023500007E004EB840293000E481844FFF71EFBCD
:102360000134042CF5D90C4D2846FFF717FB0B4C14
:102370002046FFF713FB0A48FFF710FB0948FFF759
:102380000DFB0948FFF70AFB084B1D60084B1C605A
:1023900038BD00BFF8020020E4020020D002002077
:1023A000B4020020A002002088020020CC020020FD
:1023B000C802002010B5044600F0DCFF2A4A13686A
:1023C00001331360294B1B685BB1294B1B686BB948
:1023D000264B1B68DA6AE36A9A4207D8234B1C60D3
:1023E00004E0224B1C601368012B39D0214A13688A
:1023F00001331360E36A01229A401F4908680243CF
:102400000A601E4A03EB830302EB83035B68A3604D
:102410009868E060211D41609960E36A03EB8301E5
:1024200002EB8100606152F82110013103EB83035C
:1024300042F8231000F0AEFF0D4B1B687BB10B4B35
:102440001B68DA6AE36A9A4209D24FF0E0234FF040
:102450008052C3F8042DBFF34F8FBFF36F8F10BDB1
:10246000FFF774FFC2E700BF840200205C03002076
:1024700078020020680200207C020020F802002080
:102480000F4B1B68D3B110B500F074FF0D4BDB6828
:10249000DC68201DFFF7B4FA0B4A1368013B136098
:1024A000074A1368013B136000F074FF2046FFF7F2
:1024B000CDFE034B1B68002BE6D110BD704700BF5B
:1024C0009C020020A00200208402002008B5FFF733
:1024D000D7FF074B1B68012BF9D94FF0E0234FF0D2
:1024E0008052C3F8042DBFF34F8FBFF36F8FEEE719
:1024F000F80200202DE9F04104460D46254B1E68E8
:10250000254B1F68254BD3F80080254B18680430F5
:10251000FFF776FA48B9224B1B68DB6A01229A4022
:1025200020490B6823EA02030B60B4F1FF3F0DD092
:1025300034441B4B1B685C60A6421DD9184B1968BC
:1025400004314046FFF743FABDE8F081002DEFD09B
:10255000154A5168124B1868816018688C68C4600D
:102560001868043060601868043088601B685A611D
:10257000136801331360E7E7094B196804313846E3
:10258000FFF725FA094B1B68A342DDD9074B1C60F6
:10259000DAE700BF80020020CC020020C802002041
:1025A0005C0300207C0200208802002064020020DE
:1025B00010B582B0059C0194049C0094FFF797FE2F
:1025C00020B1FFF7F7FE012002B010BD4FF0FF3041
:1025D000FAE7000010B586B000230293039304933A
:1025E00005930E2B09D8114AD25C03F118016944F6
:1025F00001F8102C0AB10133F3E718336B440024BF
:1026000003F8104C0120002C01DD06B010BD084B72
:1026100003EB8403019300230093802202A9054861
:10262000FFF7C6FF0128F0D10134ECE7746500081C
:1026300060020020CD24000838B5044600F09AFE60
:10264000002C38D0251D2846FFF7DAF968B9E36A6F
:1026500003EB8301254A52F8212032B901229A4026
:1026600023490B6823EA02030B60A36A1BB104F140
:102670001800FFF7C5F91F4A1368013313601E4B9A
:102680001B68A3421AD000221C4B1B6803B1BAB9C5
:102690001B4A1368013B1360FFF7C4FD00F07AFE8C
:1026A0002046FFF7D3FD154B1B681BB1124B1B686F
:1026B000A34210D038BD104B1C68C3E70122E3E7EA
:1026C00029461048FFF778F90F4A13680133136061
:1026D00000F060FEE7E74FF0E0234FF08052C3F8D0
:1026E000042DBFF34F8FBFF36F8FE3E7F802002095
:1026F0007C020020680200205C0300207802002099
:1027000084020020A00200209C02002008B5FFF7F0
:1027100061FF012802D00E4B1B6808BD00F0B8FD18
:102720000128F8D14FF0500383F31188BFF36F8F66
:10273000BFF34F8F074B4FF0FF321A60064B012259
:102740001A60064B00221A6000F086FEE3E700BF25
:102750008C650008640200207802002080020020BE
:10276000024A136801331360704700BF5C02002007
:10277000014B1868704700BF80020020F8B54C4B31
:102780001B68002B40F08D804A4B1C6801341C6094
:10279000ACB1494B1B68A3421ED90020474B1B68B4
:1027A000DB6A03EB83039A00454B9B58012B00D94E
:1027B0000120444B1B68002B78D0012076E0424A70
:1027C0001168424B186810601960414A1368013360
:1027D0001360FFF727FDDCE7002037E0364B4FF0B2
:1027E000FF321A60DAE7344B1A60D7E7D9685160D4
:1027F00042E000219962116801391160DA6A012111
:102800009140344E3768394331602D4902EB8202E2
:102810004FEA820C8C44DCF804209A609668DE60F3
:1028200075609560DA6A02EB820C4FEA8C056E18CF
:102830005E614D5901354FEA8C0C41F80C50DA6A53
:102840001E4B1B68DB6A9A4200D901201E4B1B6895
:102850001B68002BC2D01C4B1B68DB68DB685A6806
:102860009442C0D35A699D68D968A9609D684D603B
:1028700051681D1DA942B9D0002159611168013963
:1028800011609A6A002AB9D0DE69196AB160DE69FE
:102890004E60566803F118018E42AAD1196A516040
:1028A000A7E70D4A1368013313600020F8BD00BF8D
:1028B0005C02002080020020640200205C030020F3
:1028C000F802002070020020CC020020C802002084
:1028D0006C0200207C0200207402002038B500F059
:1028E00049FD464B1A68013A1A601B68002B7FD1DC
:1028F000434B1B683BB900247BE0196A516015E02B
:10290000D968516021E000233E4A1268002A4AD06B
:102910003C4BDB68DB689A6AD869196A8160D869C0
:102920004860506803F118018842E6D0002199629E
:102930001168013911605A699868D968816098688E
:1029400048605168181D8142DAD000215961116830
:1029500001391160DA6A012191402B4C2568294325
:1029600021602A4902EB820201EB820252689A60DE
:102970009468DC6060609060DA6A02EB820001EBD0
:1029800080045C6151F82000013002EB820241F8C2
:102990002200D96A1E4A1268D26A9142B4D91D4AED
:1029A00001211160B0E70BB1FFF73CFC1A4B1C682A
:1029B00094B9184B1C68E4B1154B1B684FF0E02329
:1029C0004FF08052C3F8042DBFF34F8FBFF36F8FCA
:1029D00001240EE0013C07D0FFF7D0FE0028F9D01B
:1029E0000C4B01221A60F5E70B4B00221A60E0E75E
:1029F000002400F0CFFC204638BD00BF5C02002060
:102A000084020020B40200207C020020F802002092
:102A10005C030020700200207402002010B550B941
:102A20004FF0E0234FF08052C3F8042DBFF34F8FD7
:102A3000BFF36F8F10BD0446FFF792FE00212046C2
:102A4000FFF758FDFFF74AFF0028F3D1E8E7000041
:102A500008B5294B1B681BB1284B01221A6008BD21
:102A6000264B00221A60264B1A68116B1A681268EE
:102A70001B681B6B9A4203D90B68B3F1A53F27D0A3
:102A80001F4B196818683431FEF7C8FD1D4B1B68D1
:102A9000B3FA83F3DBB2C3F11F031B4803EB8301DB
:102AA0008A00024451684968516003EB830C4FEA85
:102AB0008C0208320244914217D003EB83039A0040
:102AC000114B13445B68DA680D4B1A601B68C6E74C
:102AD0004B68B3F1A53FD3D18B68B3F1A53FCFD1FC
:102AE000CB68B3F1A53FCBD1D0E762469100024657
:102AF0000A44D1685160E0E75C02002070020020C7
:102B00005C0300207C020020F802002010B50C4677
:102B1000044B19681831FEF75AFF01212046FFF7D0
:102B2000E9FC10BD5C03002070B5034608465968F7
:102B30000B4C2568E96125688E682E62256818357A
:102B40007560256818358D6021688B6219680131C0
:102B5000196011460AB14FF0FF30FFF7CBFC70BD92
:102B60005C03002030B4C368DB689A6AD869196ACC
:102B70008160D8694860516803F11800814241D0F2
:102B800000219962116801391160284A1268002AEF
:102B90003ED15A699868D9688160986848605168E0
:102BA000181D814231D0002159611168013911602D
:102BB000DA6A012191401E4C2568294321601D4994
:102BC00002EB820201EB820252689A609468DC6038
:102BD00060609060DA6A02EB820001EB80045C6165
:102BE00051F82000013002EB820241F82200DA6A3B
:102BF000114B1B68DB6A9A4216D901200F4B1860F3
:102C000030BC7047196A5160BAE7D9685160CAE7A9
:102C10000B4A5168D9618C681C62606088609A6256
:102C2000116801311160E2E70020E9E75C02002051
:102C30007C020020F80200205C03002070020020CB
:102C4000B402002030B441F000410160C368026961
:102C500044688168A16044684C60516881423DD0FD
:102C6000002101611168013911605A699868D968B9
:102C70008160986848605168181D814231D00021F8
:102C80005961116801391160DA6A01219140164CCD
:102C9000256829432160154902EB820201EB82027B
:102CA00052689A609468DC6060609060DA6A02EB57
:102CB000820001EB80045C6151F82000013002EBDE
:102CC000820241F82200DA6A094B1B68DB6A9A42E9
:102CD00002D9084B01221A6030BC704781685160EC
:102CE000BEE7D9685160CAE77C020020F8020020E4
:102CF0005C03002070020020034B1B680360034B41
:102D00001B684360704700BF6C02002080020020F7
:102D1000F8B504460D4600F02DFB134B19686368A7
:102D2000C81A2A68B2F1FF3F18D0104E36682768DB
:102D3000B74205D08B4203D800232B6001240EE05C
:102D4000824203D800232B60012408E05B1A13445D
:102D50002B602046FFF7D0FF002400E0002400F0A5
:102D600019FB2046F8BD00BF800200206C02002045
:102D7000014B01221A60704770020020014B186855
:102D8000704700BF5C030020002857D070B5044690
:102D9000C36A2C4A1268D26A934247D28269002AD7
:102DA00005DB284A1268D26AC2F1050282616169B4
:102DB00003EB8303244A02EB8303994205D0214BA2
:102DC0001B68DB6AE362012070BD251D2846FEF703
:102DD00017FE38B9E36A01229A401C490B6823EABE
:102DE00002030B60174B1B68DB6AE362012000FAE9
:102DF00003F216490E6832430A60134A03EB830359
:102E000002EB83035B68A3609968E1604D609D609D
:102E1000E36A03EB830102EB8105656152F821103F
:102E2000014403EB830342F82310CDE7426C054BCA
:102E30001B68DB6A9A4203D30020C5E70020704775
:102E40000120C1E75C030020F80200207C02002082
:102E500000283DD070B50446836C013B8364C16A91
:102E6000426C914236D00BB1002070BD051D284642
:102E7000FEF7C6FD38B9E36A01229A4016490B688D
:102E800023EA02030B60636CE362C3F10502A261F3
:102E9000012000FA03F210490E6832430A600F4A1B
:102EA00003EB830302EB83035B68A3609968E16033
:102EB0004D609D60E36A03EB830102EB8105656170
:102EC00052F82110014403EB830342F82310CCE7AE
:102ED000002070470020C8E77C020020F802002094
:102EE000002847D070B50446436C8B4200D20B4695
:102EF000E56A9D4202D0A26C012A00D070BDE36257
:102F0000A269002A02DBC3F10503A361616905EB35
:102F10008502194B03EB82039942EFD1261D3046FF
:102F2000FEF76EFD30B90122AA4014490B6823EA6E
:102F300002030B60E36A01229A40104908680243C9
:102F40000A600D4A03EB830302EB83035B68A36013
:102F50009968E1604E609E60E36A03EB830102EBD7
:102F60008100606152F82110013103EB830342F8C4
:102F70002310C3E7704700BFF80200207C02002046
:102F8000034B186810B1836C01338364704700BF32
:102F90005C030020064B1A6813682BB901230360F9
:102FA00023B9D368186870470023F8E700207047FA
:102FB0007003002008B54160006191420CD8D21A1C
:102FC00083699A4201D3012008BD011D094B18688D
:102FD000FEF7FDFC0020F7E79A4201D2994206D2A3
:102FE000011D054B1868FEF7F2FC0020ECE70120FC
:102FF000EAE700BF6C0300207003002070B50446B0
:103000000D46164604E0A3691D44236A20469847EE
:10301000A1692B46324629442046FFF7CBFF002802
:10302000F1D170BD70B505460E460D4B1B68DB68CF
:10303000DC68201DFEF7E4FC94F8243013F0040F44
:1030400007D123F0010384F82430236A20469847EF
:1030500070BD324629462046FFF7D0FFF5E700BF96
:103060007003002008B505E0DB684FF0FF311868F9
:10307000FFF7D8FF054B1B681A68002AF4D1044AF1
:10308000106802490860136008BD00BF700300208B
:103090006C03002038B50546FFF76AFB0446074B72
:1030A0001B68834205D800232B60044B1C6020461C
:1030B00038BDFFF7D7FF01232B60F6E76003002040
:1030C00070B582B006460C46FFF74AFB01A8FFF731
:1030D000E1FF019B33BB0546E4B9B04213D222465F
:1030E000711B124B1868FFF773F8FFF7F7FBD8B99D
:1030F0004FF0E0234FF08052C3F8042DBFF34F8F01
:10310000BFF36F8F10E0FFF7E9FB29463046FFF76A
:1031100089FF09E0064A126812680AB90124DEE74D
:103120001C46DCE7FFF7DAFB02B070BD6803002045
:103130006C03002030B585B0002301930293039304
:10314000002201A9344B1868FEF751FE002861D017
:10315000019B002BF4DB039C002CF1D0636913B1BD
:10316000201DFEF74DFC6846FFF794FF05460199C8
:1031700001390829E4D8DFE801F0050529303F05C9
:103180000529300094F8243043F0010384F82430FA
:10319000029BA169024619442046FFF70BFF002855
:1031A000CED094F8243013F0040F07D123F001039C
:1031B00084F82430236A20469847C1E7A3692A4649
:1031C000029919442046FFF719FFF3E794F82430D9
:1031D00023F0010384F82430B2E794F8243043F05C
:1031E000010384F824300299A16103460246014498
:1031F0002046FFF7DFFEA3E794F8243013F0020F18
:1032000004D023F0010384F8243099E7204600F02D
:103210001FFA95E705B030BD6803002000B583B004
:1032200001A8FFF7B7FE0199FFF74AFFFFF782FFFA
:10323000F6E7000038B500F09DF80F4B1B6813B19E
:1032400000F0A8F838BD0D4D2846FEF7A7FB0C4C42
:103250002046FEF7A3FB0B4B1D600B4B1C600022AE
:103260000C210820FEF7DFFC034B18600028E7D094
:103270000649FEF785FFE3E7680300208803002086
:1032800074030020700300206C0300207C6500089C
:1032900000B583B0FFF7CEFF084B1B6863B1084B46
:1032A00001930223009300234FF4807205490648DE
:1032B000FFF77EF903B000BD0020FBE768030020A4
:1032C00064030020846500081D32000882B00023DA
:1032D00001934FF0500383F31188BFF36F8FBFF357
:1032E0004F8F019B002BFCD002B07047084800684C
:1032F000006880F308884FF0000080F3148862B6FD
:1033000061B6BFF34F8FBFF36F8F00DF00BF0000C8
:1033100008ED00E0DFF80C00016841F47001016085
:103320007047000088ED00E04FF0807340F8043CE7
:1033300021F0010140F8081C054B40F80C3C40F816
:10334000202C6FF0020340F8243C4438704700BF43
:10335000CD320008064B19680868B0E8F04F80F3DA
:103360000988BFF36F8F4FF0000080F3118870471A
:103370005C0300204FF0500383F31188BFF36F8F7D
:10338000BFF34F8F024A136801331360704700BFC9
:1033900004000020034A1368013B13600BB983F358
:1033A0001188704704000020EFF30980BFF36F8F8E
:1033B000134B1A681EF0100F08BF20ED108A20E989
:1033C000F04F106009B44FF0500080F31188BFF344
:1033D0004F8FBFF36F8FFFF73BFB4FF0000080F381
:1033E000118809BC19680868B0E8F04F1EF0100F8A
:1033F00008BFB0EC108A80F30988BFF36F8F704765
:103400005C03002008B54FF0500383F31188BFF32D
:103410006F8FBFF34F8FFFF7B1F928B14FF0E02363
:103420004FF08052C3F8042D002383F3118808BDA8
:103430004FF0E022002313619361054B1B6805499F
:10344000A1FB03139B09013B5361072313617047E1
:1034500000000020D34D621038B54FF0E024D4F8BE
:10346000203D43F47F03C4F8203DD4F8203D43F0D1
:103470007F43C4F8203D0025C4F81C5DFFF7D8FF4A
:10348000084B1D60FFF746FFD4F8343F43F040433C
:10349000C4F8343FFFF72AFFFFF7DAFAFFF716FF09
:1034A000284638BD04000020104A12F0070F1AD039
:1034B000D11D21F00701C1F5E04313440A460C4831
:1034C0000260002141601344083B23F007030948D0
:1034D000036059601960991A51601360064B1960B6
:1034E000064B196070474FF4E043E8E7B80300204B
:1034F000B0030020AC030020A4030020A803002098
:10350000164B1A461B688342FBD3516802EB010C31
:10351000844509D0416800EB010C634509D0036084
:10352000904219D0106070474068014451601046C5
:10353000F0E710B40A4C2468A3420BD05B6819442E
:10354000416013681B680360904200D010605DF812
:10355000044B70470460F7E7704700BFB0030020DA
:10356000AC03002070B5044670B110F1090F0AD801
:10357000083414F0070307D0C3F10802093BA34243
:1035800011D3144400E00024FFF7EAF82B4B1B682A
:103590005BB1002C0CDB94B1294B1E68A64212D300
:1035A00028490B6815E00024EEE7FFF77DFFF0E700
:1035B000FFF794F90025FEF727F8284670BDFFF7BE
:1035C0008DF90025F7E7FFF789F90025F3E719469C
:1035D00013465A68A24202D21A68002AF7D1174A43
:1035E00012689A4225D00D6808351A680A60586832
:1035F000001B102805D91A1950605C600868185122
:103600000A605968761A0E4806600F4800688642BC
:1036100001D20D48066041F00041596000221A6055
:103620000A4A136801331360FFF758F9002DC4D11B
:10363000C1E7FFF753F90025BDE700BFAC03002049
:10364000A8030020B0030020A4030020A003002052
:1036500010B338B50446A0F1080550F8043C002B1F
:1036600000DB38BD50F8082C002AFAD123F00043C3
:1036700040F8043CFFF774F854F8041C074A136838
:103680000B4413602846FFF73BFF054A13680133DC
:103690001360FFF723F9E4E7704700BFA803002099
:1036A0009C0300202DE9FF4757EC106B002F0C46C0
:1036B00019463B46BBBF07F100431F4600232D239D
:1036C0000B700D9BDDF830A0914623F02008BCBFA5
:1036D00032461646B8F1460F05D0B8F1450F00D175
:1036E0000134022100E0032103AB019302AB0093FC
:1036F00047EC106B5346224600F0C2FEB8F1470F6C
:10370000054619D119F0010F0ED000EB0409002273
:10371000002330463946FDF7E3F908B1CDF80C90A7
:103720003022039B4B451ED3039B0E9A5B1B2846FE
:10373000136004B0BDE8F087B8F1460F00EB040950
:10374000E5D10378302B0AD10022002330463946D8
:10375000FDF7C6F918B9C4F10104CAF80040DAF857
:1037600000309944D3E7591C03911A70D9E7F7B593
:103770000029BABF49422D232B2309290270437027
:1037800029DD0DF1070425460A272246B1FBF7F68D
:1037900007FB1613303302F8013C0B46632B04F190
:1037A000FF343146F1DC3031931E04F8011C411C1A
:1037B0001C46AB420AD30DF109039B1AA54238BF40
:1037C0000023821C1344181A03B0F0BD13F8016BD8
:1037D00001F8016FEDE7302330318370C170031DB4
:1037E000F1E700002DE9F04F8DB00C46DDF8588070
:1037F00016461F46054600F033FD0368069318463B
:10380000FCF7FEFE00230A93D8F8003094F818A0C5
:10381000D4F800B00790073323F00703B3EC027B22
:103820008DED047BC8F80030DDE9048323F0004906
:1038300084ED127B9C4B4FF0FF3240464946FDF72A
:1038400081F970BB984B4FF0FF3240464946FDF777
:103850005BF930BBDDE9040100220023FDF74AF9E2
:1038600010B12D2384F84330904A914BBAF1470FA1
:103870008CBF90469846032323612BF004032360FA
:103880004FF00009009733460BAA2146284600F066
:10389000D1F9013040F08C804FF0FF300DB0BDE821
:1038A000F08FDDE9042310461946FDF74BF940B1CE
:1038B000059B804A002BBCBF2D2384F843307E4BF0
:1038C000D4E763685A1C0AF0DF093BD10623636022
:1038D0004BF480620023226003930AABCDE901A37D
:1038E00009AB009361689DED040B0DF1230328469D
:1038F000FFF7D8FEB9F1470F0999804629D1C81CB6
:1039000002DB63688B4241DAAAF1020A5FFA8AFAA3
:103910000139524604F150000991FFF728FF0A9A35
:103920001318012A8146236102DC2268D20701D5DF
:10393000013323619DF82330002BA3D02D2384F87D
:1039400043309FE7B9F1470FC2D1002BC0D101230B
:10395000BDE7BAF1650FDBD9BAF1660F18D10029BE
:1039600063680BDD216113B92268D00702D50133EA
:103970000B442361A1654FF00009DBE713B922680E
:10398000D20701D50233F4E70123F2E74FF0670ACB
:103990000A9B8B4205DC23682161D807EAD54B1CC2
:1039A000E7E70029D4BFC1F1020201221344E0E796
:1039B00023685A0507D42369424631462846B8474A
:1039C00001302BD168E7BAF1650F40F2DD80D4E910
:1039D000120100220023FDF783F8002833D0374A74
:1039E000012331462846B84701303FF455AFDDE9A1
:1039F0000938434502DB2368D8070FD5DDE90623E4
:103A000031462846B84701303FF446AF4FF0000931
:103A100008F1FF3804F11A0AC84509DC23689B073E
:103A200000F10381E0680B9B9842B8BF184635E768
:103A30000123524631462846B84701303FF42CAFA7
:103A400009F10109E8E7099B002B39DC1B4A012336
:103A500031462846B84701303FF41EAFDDE9093949
:103A600059EA030302D12368D907D7D5DDE9062334
:103A700031462846B84701303FF40EAF4FF0000AF8
:103A800004F11A0B099B5B42534501DC4B4693E75B
:103A900001235A4631462846B84701303FF4FCAE70
:103AA0000AF1010AEEE700BFFFFFEF7F946500080F
:103AB000906500089C65000898650008A0650008EE
:103AC000A36DDDF828A05345A8BF5346002B9946A7
:103AD00036DC4FF0000B29EAE97904F11A02A36DF4
:103AE0000493A3EB09035B4531DC099B9A453ADC5F
:103AF0002368DA0737D4099BAAEB0309049BAAEBD6
:103B000003039945A8BF9946B9F1000F33DC4FF084
:103B1000000829EAE97904F11A0B099BAAEB0303CF
:103B2000A3EB090343457FF779AF01235A4631469A
:103B30002846B84701303FF4AFAE08F10108ECE782
:103B4000424631462846B8470130C2D1A4E6012397
:103B5000314628460492B84701303FF49DAE049A9E
:103B60000BF1010BBBE7DDE9062331462846B847D8
:103B70000130C0D190E6049A4B4642443146284673
:103B8000B8470130C3D187E6DDF828A0BAF1010FAC
:103B900001DCDB0736D50123424631462846B847CB
:103BA00001303FF479AEDDE9062331462846B847B7
:103BB00001303FF471AED4E91201002200230AF172
:103BC000FF3AFCF78DFFC0B9534608F101023146B8
:103BD0002846B84701300CD15EE601235A463146EB
:103BE0002846B84701303FF457AE08F10108D045E8
:103BF000F3DB4B4604F15002DFE64FF0000804F11E
:103C00001A0BF4E701234246E1E701234A46314615
:103C10002846B84701303FF43FAE08F10108E36899
:103C20000B995B1A4345F0DCFCE64FF0000804F109
:103C30001909F4E72DE9F047164698468A680B699A
:103C4000DDF820909342B8BF1346336091F84320CB
:103C500007460C460AB1013333602368990642BF18
:103C6000336802333360256815F0060506D104F188
:103C7000190AE36832689B1AAB4226DC94F8433099
:103C80002268003B18BF012392062BD404F14302A3
:103C900041463846C84701301ED02368226903F0E8
:103CA0000603042B02BFE5683368ED1AA3680CBF56
:103CB00025EAE57500259342C4BF9B1AED1800263E
:103CC0001A34B5421AD1002008E001235246414679
:103CD0003846C847013003D14FF0FF30BDE8F087C8
:103CE0000135C6E7E1185A1C302081F84300224410
:103CF00094F8451082F843100233C7E701232246A7
:103D000041463846C8470130E6D00136D9E70000C1
:103D10002DE9F0430D7E85B0782D90460C9E074628
:103D20000C46994601F1430207D8622D0AD8002DAE
:103D300000F0D780582D00F0BC8004F1420684F8D2
:103D400042503BE0A5F16303152BF6D801A151F8D1
:103D500023F000BFAD3D0008C13D00083B3D000819
:103D60003B3D00083B3D00083B3D0008C13D0008CD
:103D70003B3D00083B3D00083B3D00083B3D000843
:103D8000C93E0008EB3D00087B3E00083B3D0008B3
:103D90003B3D0008EB3E00083B3D0008EB3D0008C2
:103DA0003B3D00083B3D0008833E000833681A1D78
:103DB0001B68326004F1420684F842300123A1E01E
:103DC00033682068191D3160060601D51D6803E0BF
:103DD0004506FBD5B3F90050002D03DA2D236D42C3
:103DE00084F843305B480A2311E0216833680806F1
:103DF00053F8045B02D4490648BFADB23360237E5A
:103E000054486F2B5CD10823002184F84310666866
:103E1000A660002E05DB21682E4321F004012160FD
:103E200050D01646B5FBF3F103FB115C10F80CC043
:103E300006F801CDAC4663450D46F3D9082B0BD1EE
:103E40002368DB0708D5236961689942DEBF302308
:103E500006F8013C06F1FF36921B2261CDF8009076
:103E6000434603AA21463846FFF7E4FE01304ED10F
:103E70004FF0FF3005B0BDE8F083236843F0200326
:103E800023603548782584F845502368316813F05D
:103E9000800F51F8045B03D113F0400F18BFADB28F
:103EA0003160D90744BF43F0200323601DB11023C4
:103EB000AAE72848E7E7236823F020032360F6E712
:103EC0000A23A1E71646B9E7336825686169181D1A
:103ED00030602E061B6801D5196002E06806FBD52C
:103EE0001980002323611646B8E733681A1D326033
:103EF0001E68626800213046FCF732FB08B1801B67
:103F0000606063682361002384F84330A6E7236977
:103F1000324641463846C8470130A9D023689B073E
:103F200013D4E068039B9842B8BF1846A2E7012368
:103F3000324641463846C847013099D00135E368DA
:103F400003995B1AAB42F2DCEBE7002504F119069A
:103F5000F5E700BFA2650008B3650008002310B5AF
:103F60000446C0E90033C0E90433836081814366BD
:103F7000C2818361194608225C3000F069F90D4B5B
:103F800063620D4BA3620D4BE3620D4B23630D4B3C
:103F900024629C4206D003F16802944202D0D033DE
:103FA0009C4205D104F15800BDE8104000F0CCB9A6
:103FB00010BD00BF5141000873410008AB4100082B
:103FC000D1410008B8730020024A0349034800F0B9
:103FD0006BB800BF08000020FD5C0008180000203E
:103FE00041680C4B994210B5044601D001F086FEA1
:103FF000A168094B994202D0204601F07FFEE1689A
:10400000064B994204D02046BDE8104001F076BE30
:1040100010BD00BFB87300202074002088740020F9
:104020000C4B0D4A0D4810B504211A600022FFF711
:1040300095FF0A4B01221C46092103F16800FFF796
:104040008DFF04F1D0000222BDE810401221FFF7DD
:1040500085BF00BFF0740020C93F0008B87300207E
:10406000014800F072B900BFF9740020014800F067
:104070006DB900BFF974002010B50446FFF7F0FFDA
:10408000236A1BB1BDE81040FFF7F0BF044B236269
:10409000044B1B68002BF5D1FFF7C2FFF2E700BF0E
:1040A000E13F0008F07400202DE9F84307468846F8
:1040B00014460026D4E90195B9F1010905D5246813
:1040C000002CF7D13046BDE8F883AB89012B07D926
:1040D000B5F90E30013303D029463846C0470643B0
:1040E0006835E9E70CB430B5184B0C1E1D689DB05F
:1040F00008DA8B232B604FF0FF301DB0BDE8304055
:1041000002B070474FF40273ADF814304FF0000363
:104110001B9314BF04F1FF332346049307934FF618
:10412000FF7302900690ADF81630209A21AB02A9D9
:104130002846019301F068FC431CBCBF8B232B6015
:10414000002CDAD0029B00221A70D6E7140000205F
:1041500010B50C46B1F90E1000F0A8F80028ABBF5E
:10416000636DA3891B1823F48053ACBF6365A381DF
:1041700010BD2DE9F0411F468B89DB0505460C4635
:10418000164605D5B1F90E100223002200F07CF886
:10419000A389B4F90E1023F48053A38132463B4621
:1041A0002846BDE8F04100F093B810B50C46B1F9CF
:1041B0000E1000F069F8B4F90C30421C0BBF23F468
:1041C000805343F48053A381A38118BF606510BD61
:1041D000B1F90E1000F048B830B51446002C9BB071
:1041E00005461A4605DA8B2303604FF0FF301BB0FB
:1041F00030BD4FF40273ADF80C304FF0000319934B
:1042000014BF04F1FF332346029305934FF6FF7367
:1042100000910491ADF80E3069461E9B01F0F4FB4D
:10422000431CBCBF8B232B60002CE0D0009B0022E2
:104230001A70DCE707B5009313460A4601460348A7
:104240000068FFF7C9FF03B000BD00BF14000020E5
:1042500002440346934200D1704703F8011BF9E77B
:10426000004870475401002038B5064D002304462D
:1042700008462B60FCF714FD431C02D12B6803B1E8
:10428000236038BDF474002038B5074D0446084655
:10429000114600222A601A46FCF715FD431C02D184
:1042A0002B6803B1236038BDF474002038B5074D86
:1042B00004460846114600222A601A46FCF7E8FC2C
:1042C000431C02D12B6803B1236038BDF474002075
:1042D00038B5074D04460846114600222A601A46A2
:1042E000FCF7B8FC431C02D12B6803B1236038BD36
:1042F000F4740020014B1868704700BF14000020C0
:1043000070B50D4B0D4D5B1B9C100026A64209D1CC
:1043100002F07AF80A4D0B4B5B1B9C100026A6425C
:1043200005D170BD55F8043B98470136EEE755F8C6
:10433000043B98470136F2E70C6900080C69000855
:104340000C690008106900087047704770470A44FC
:10435000914200F1FF3300D1704710B511F8014BC5
:1043600003F8014F9142F9D110BD2DE9F74F0369D0
:104370000C69A34207467EDB013C01F11408A3004F
:1043800000F11405009305EB8403019358F82430E1
:1043900055F8242001339A4208EB8409B2FBF3F666
:1043A0002ED34FF0000AC446AE46D3465CF8043B19
:1043B00098B206FB00A0020C1B0C06FB0323DEF8E0
:1043C000002080B292B2121A5A44DEF800004FEA7E
:1043D000134A9BB2C3EB224303EB104392B242EA6F
:1043E0000342E1454EF8042B4FEA234BDED2009BFB
:1043F000EB582BB9019B043B9D421A462FD33C61DD
:10440000384601F095F9002825DB2946002058F8A8
:10441000042BD1F800C01FFA82FE1FFA8CF3A3EB25
:104420000E030344120CC2EB234202EB1C429BB26C
:1044300043EA0243C14541F8043B4FEA2240E6D239
:1044400055F8242005EB840322B9043B9D421A460B
:104450000BD33C610136304603B0BDE8F08F1268E3
:10446000043B002ACBD1013CC6E71268043B002A7A
:10447000EFD1013CEAE70020EEE700000000000079
:104480002DE9F04F99B08DED0E0B0C92C269229C74
:104490000A9157EC106B8146139382B9102000F0FB
:1044A00015FE0246C9F81C0020B9AB4BEF21AB4802
:1044B00001F076FC0023C0E901330360C36011689A
:1044C00059B152684A60012393408B60484600F01E
:1044D000F1FED9F81C3000221A60B7F10008B5BF10
:1044E00001230023236023609D4BBCBF28F00048BC
:1044F000CDF83C8033EA08031AD1139AC8F31308A5
:1045000042F20F7358EA0608136000F06885239B97
:1045100053B9944B21E0944B00930833239A1360D2
:10452000009819B0BDE8F08F8E4B00930333F5E788
:104530009DED0E7B002251EC170B00238DED067BC9
:10454000FCF7CEFA824650B1139A01231360239BE5
:1045500013B1239A854B1360854B0093E0E79DEDE3
:10456000060B16AA17A9484601F096F95FEA1854F7
:10457000169D019079D0079BCDF850A0C3F313038B
:10458000DDE9060143F07F5343F44013A4F2FF3406
:1045900019460022774BFBF727FE69A3D3E90023D6
:1045A000FCF736F868A3D3E90023FBF71FFE0646A5
:1045B00020460F46FBF766FF65A3D3E90023FCF70F
:1045C00027F802460B4630463946FBF70FFE0646F3
:1045D0000F46FCF7CDFA00228046002330463946CC
:1045E000FCF788FA48B14046FBF74CFF32463B46A1
:1045F000FCF776FA08B908F1FF38B8F1160F51D870
:104600005D4B03EBC803D3E90023DDE90601FCF7AA
:1046100071FA002848D008F1FF38002312932D1BAF
:104620006B1E089343BF0023C5F1010708930027C1
:10463000B8F1000F3ADB089BCDF83480434408936F
:10464000002309930A9B092B62D8052BC4BF043BA6
:104650000A930A9BA3F10203CCBF00240124032B7D
:1046600062D8DFE803F05153362B179C2C4404F238
:104670003243202BC1BFC3F1400308FA03F804F210
:10468000124326FA03F3D6BFC3F1200348EA03001E
:1046900006FA03F0FBF7E6FE0122A1F1F873013CF4
:1046A000149275E70123B9E71290B8E7C8F1000347
:1046B00009930023A7EB08070D93C3E701230B938E
:1046C0000C9B434405930133012B0493B8BF012392
:1046D00006E001230B930C9B002B28DDCDE904336E
:1046E000D9F81C000021042202F114059D4223D9AF
:1046F0004160484600F0A0FD0090002840D11F4BCB
:10470000024640F2AF11D2E60023E3E70023D6E7EA
:1047100001240023CDE90A344FF0FF33CDE90433FF
:10472000002212230C92DBE701230B93F4E7012311
:10473000CDE904331A46F5E701315200D4E700BF52
:1047400061436F63A787D23FB3C8608B288AC63F97
:10475000FB799F501344D33FD1650008E8650008FA
:104760000000F07FCD650008C4650008A165000861
:10477000A06500080000F83F3867000840660008A0
:10478000D9F81C30009A1A60049B0E2B00F2A1800D
:10479000002C00F09E80B8F1000F36DD9E4B08F033
:1047A0000F0203EBC20318F4807FD3E900AB4FEA9A
:1047B000281516D0994BDDE90601D3E90823FCF74B
:1047C00051F8CDE9020105F00F050324934E75B9A8
:1047D000DDE9020152465B46FCF744F882468B460F
:1047E0002DE09DED067B02248DED027BEEE7E907CF
:1047F00008D550465946D6E90023FBF709FF013496
:1048000082468B466D100836E1E700F0AD80C8F1B6
:104810000005814B814E05F00F0203EBC203D3E983
:104820000023DDE90601FBF7F3FE2D1182468B46DE
:1048300000230224002D40F08C80002BCED1129B4F
:10484000002B00F09580764B002250465946FCF72D
:1048500051F9002800F08C80049B002B00F0888028
:10486000059B002B35DD08F1FF3302935046594676
:104870006C4B0022FBF7CCFE059E82468B46013432
:104880002046FBF7FFFD52465B46FBF7C1FE664B39
:104890000022FBF7ABFC0446A1F15075CDE91045B1
:1048A000002E69D1614B002250465946FBF79CFC13
:1048B00022462B4682468B46FCF73AF9002840F008
:1048C0009482224605F1004350465946FCF712F9FE
:1048D00020BB179B002BC0F26081B8F10E0F00F3D4
:1048E0005C814D4B03EBC803D3E900AB0C9B002B61
:1048F00080F2EE80049B002B00F3EA800ED14B4B3C
:10490000002250465946FBF783FE02460B46DDE97E
:104910000601FCF7F9F8002800F06A8200252C4611
:104920000C9B009EDB430293274600242946484601
:1049300000F0C0FC002F00F0C1802CB1BC4203D0BD
:104940002146484600F0B6FC3946484600F0B2FC25
:10495000B4E0EA0705D5D6E90023FBF759FE013498
:1049600001236D10083665E7DDE906AB022466E732
:10497000049ECDF8088083E7274B03EBC60353E979
:1049800002010B9B002B55D002460B460020284904
:10499000FBF768FFDDE91023FBF726FC009BCDE960
:1049A00010019D191E4659465046FCF7E1F8044691
:1049B000FBF768FD02460B4650465946FBF714FCD0
:1049C0003034DDE9102306F8014B82468B46FCF7B4
:1049D00091F8002872D152465B4611490020FBF73E
:1049E00003FCDDE91023FCF785F8002840F0B680D1
:1049F000AE423FF46EAFDDE910010A4B0022FBF737
:104A000007FE084BCDE91001002250465946FBF73E
:104A1000FFFD82468B46C6E738670008106700082E
:104A20000000F03F0000244000001C400000144043
:104A30000000E03FDDE91023FBF7EAFD009B009D4D
:104A4000CDE910013344159359465046FCF790F8D0
:104A50000446FBF717FD30340B46024659465046D4
:104A6000FBF7C2FB05F8014B159B9D4282468B4626
:104A700027D1009B0022DDE910011E44B34BFBF758
:104A8000B5FB02460B4650465946FCF751F8002844
:104A900064D1DDE91023AD490020FBF7A5FB0246F8
:104AA0000B4650465946FCF725F800283FF411AF55
:104AB000334616F8012D302AFAD01E46DDF808805C
:104AC0003AE0A34B0022FBF7A3FD82468B46BBE7EF
:104AD000009E52465B46DDE90601FBF7C3FEFCF78C
:104AE00047F80746FBF7CEFC52465B46FBF790FDC6
:104AF00002460B46DDE90601FBF776FB07F1300CB9
:104B0000009C06F801CBA6EB040C049C644502460D
:104B10000B4633D1FBF76AFB52465B4604460D4613
:104B2000FCF706F8C0B952465B4620462946FBF71B
:104B3000D7FF08B1FB070FD40199484600F0BAFB34
:104B40000023139A337008F101031360239B002B99
:104B50003FF4E6AC1E60E3E4CDF8088033461E4621
:104B600013F8012D392A06D1009A9A42F7D1029AF8
:104B700001320292302201321A709FE7744B0022F8
:104B8000FBF746FD02460B46CDE906230022002333
:104B9000FBF7A6FF00289CD0CEE70B9A002A00F076
:104BA000E3800A9A012A00F3C280149A002A00F0D6
:104BB000BA8003F23343099D3E46089A01211A4404
:104BC00048461F44089200F029FC044656B1089B51
:104BD000002B07DDB342089AA8BF3346FF1AF61A26
:104BE000D31A0893099B0BB30B9B002B00F0C380D7
:104BF000002D00F0BD8021462A46484600F0CEFC3C
:104C0000019A01460446484600F01EFC019982467E
:104C1000484600F04FFB099B5B1B099300F0AE80F8
:104C2000099A5146484600F0B9FC019001214846D6
:104C300000F0F4FB0D9B0546002B00F0D7811A46CF
:104C40000146484600F0AAFC0A9B012B054600F3EA
:104C50009D800E9B002B40F094800F9BC3F31303A9
:104C6000002B40F08E800F9B23F000431B0D1B0593
:104C7000002B00F08980089B0133013708934FF027
:104C8000010A0D9B002B00F0B7812B6905EB830314
:104C9000186900F077FBC0F12000089B184410F061
:104CA0001F007ED0C0F12003042B72DD089BC0F1F1
:104CB0001C000344074406440893002F05DD0199B6
:104CC0003A46484600F0C6FC0190089B002B05DDE3
:104CD00029461A46484600F0BDFC0546129B002BAB
:104CE00061D00198294600F023FD00285BDA08F125
:104CF000FF330293019900230A22484600F0FCFA90
:104D00000B9B0190002B00F07981002321460A22A1
:104D1000484600F0F1FA059B002B044672DC0A9B22
:104D2000022B49DC6EE0169BC3F1360343E7049B7C
:104D30005D1E099BAB420DDB5D1B049B002BBFF688
:104D40003BAF049BFE1A002337E700BF0000E03FA3
:104D500000002440099B0D9A0995EB1A1A440D9204
:104D6000049B3E46002528E7099D0B9C3E462DE707
:104D7000DDF804A054E7099A019953E7CDF804A09F
:104D800054E74FF0000A7CE79A467AE74FF0000AB2
:104D90007BE792D0089A1C331A441F441E440892A1
:104DA0008BE70346F6E7049BCDF80880002B23DC55
:104DB00005930A9B022B21DD059B002B7FF4B0ADF0
:104DC00029460522484600F097FA01460546019813
:104DD00000F0AEFC00287FF7A3AD009E312306F85B
:104DE000013B029B013302939EE535462C46F4E7D6
:104DF000049DCDF80880F9E7049B05930B9B002BDD
:104E000000F00081002E05DD21463246484600F0C4
:104E100021FC0446BAF1000F5AD06168484600F000
:104E20000BFA064628B9824B024640F2EF21FFF703
:104E30003EBB22690232920004F10C010C30FFF7F4
:104E400086FA01223146484600F004FC0746009BE2
:104E5000009A03F1010B059B134406930E9B03F08C
:104E6000010308930BF1FF33294601980493FFF7E0
:104E70007CFA2146059000F1300A019800F058FCB8
:104E80003A4680462946484600F06EFCC26806460F
:104E900002BB0146019800F04BFC024631464846F1
:104EA000099200F007FADDE9092342EA0301089BB1
:104EB00019435E4610D1BAF1390F2BD0B8F1000F6B
:104EC00002DD059B03F1310A049B83F800A02DE568
:104ED0002746BCE70122E1E7B8F1000F06DB0A9B99
:104EE00048EA0308089B58EA030820D1002AEBDDB2
:104EF00001990122484600F0ADFB2946019000F0DF
:104F000017FC002803DCDFD11AF0010FDCD0BAF166
:104F1000390FD6D1049A3923137033461E46013B0C
:104F200016F8012C392A52D001321A70FEE4002AF8
:104F300007DDBAF1390FEDD0049A0AF101031370BD
:104F4000F4E4069B0BF801AC5B452AD001990023E1
:104F50000A22484600F0D0F9BC4201904FF000030D
:104F60004FF00A022146484606D100F0C5F9044632
:104F700007460BF1010B75E700F0BEF93946044610
:104F800000230A22484600F0B7F90746F1E7059BDF
:104F90005E1E002B009BD8BF00265A1C27461644D5
:104FA000002401990122484600F054FB2946019053
:104FB00000F0BEFB0028B0DC02D11AF0010FACD12A
:104FC00033461E4613F8012D302AFAD0AEE4009A7B
:104FD0009A42A3D1029B013302933123AFE7239B73
:104FE000002B7FF498AA134BFFF7B7BA0A9B012B4B
:104FF0007FF72FAEDDF834A001204EE6059B002B95
:105000007FF7D7AE009E01982946FFF7AEF900F171
:10501000300A009B06F801ABF21A059B9342B6DDFD
:10502000019900230A22484600F066F90190EAE758
:1050300040660008C465000838B50546002941D01F
:1050400051F8043C0C1F002BB8BFE41800F0E8F83E
:105050001D4A136833B9636014602846BDE83840C0
:1050600000F0E4B8A34208D9206821188B4201BFA0
:1050700019685B6809182160EDE71A465B680BB197
:10508000A342FAD911685018A0420BD120680144FC
:10509000501883421160E0D118685B68536008447F
:1050A0001060DAE702D90C232B60D6E720682118BC
:1050B0008B4204BF19685B68636004BF09182160F4
:1050C0005460CAE738BD00BF00750020024B01469E
:1050D000186800F025B800BF1400002070B50F4E0E
:1050E0000C463168054611B900F04AFE3060214691
:1050F000284600F045FE431C03D14FF0FF34204604
:1051000070BDC41C24F00304A042F8D0211A284624
:1051100000F036FE0130F2D1EFE700BFFC74002052
:105120002DE9F843CD1C25F0030508350C2D38BFBB
:105130000C25002D064601DBA94204D90C2333605F
:105140000020BDE8F883DFF8D48000F069F8D8F8D3
:1051500000301C4644BB29463046FFF7BFFF431CC6
:10516000044658D1D8F800402746002F43D1002CE0
:105170004BD023683946304604EB030900F000FEAB
:10518000814542D121686D1A29463046FFF7A6FFB6
:1051900001303AD023682B442360D8F800305A6895
:1051A00062BBC8F800700FE02268521B20D40B2AA3
:1051B00017D96119A342256018BF5960636808BFF9
:1051C000C8F8001062514B60304600F02FF804F12F
:1051D0000B00231D20F00700C21A1CBF1B1AA3508E
:1051E000AFE76268A3420CBFC8F800205A60EBE743
:1051F00023466468AEE73C467F68B6E71A465B68BC
:10520000A342FBD100235360DEE70C23336030461A
:1052100000F00CF894E70560D6E700BF00750020A9
:105220000148FFF792B800BFF87400200148FFF76B
:105230008DB800BFF874002070B5C46905460E46ED
:1052400084B91020FFF742FF0446E86128B90246FE
:10525000164B17486B2100F0A3FD0023C0E9013372
:105260000360C360E36853B921220421284600F09B
:10527000B5FDEB69E060DB680BB9002070BD53F849
:10528000260030B1026843F826200023C0E903332A
:10529000F4E7012101FA06F4621D9200284600F0AD
:1052A0009DFD0028E9D0C0E90164EEE7D165000862
:1052B0005166000870B5C66905460C4676B91020DF
:1052C000FFF704FF0246E86120B9094B09488F2126
:1052D00000F066FDC0E901660660C6603CB1EB699E
:1052E0006268DB6853F82210216043F8224070BDE9
:1052F000D1650008516600082DE9F0410D690746A7
:105300000C461E4601F1140C0020DCF8003099B266
:1053100002FB01611E0C0B0C02FB063389B201304B
:1053200001EB034185424CF8041B4FEA1346ECDCC9
:105330000EB3A368AB4219DC616838460131FFF750
:105340007BFF804628B902460C4B0D48BA2100F07D
:1053500027FD2269023204F10C0192000C30FEF7A5
:10536000F6FF21463846FFF7A5FF444604EB8503C8
:1053700001355E6125612046BDE8F0814066000888
:1053800051660008B0F5803F034636BF0304002095
:105390001020B3F1807F3CBF1B020830B3F1805F67
:1053A0003CBF1B010430B3F1804F3CBF9B00023077
:1053B000002B05DB13F0804F00F1010008BF202017
:1053C00070470368024613F007000BD0D90721D4B9
:1053D000980749BF5B089B08012013605CBF1360FE
:1053E0000220704799B209B91B0C1020D9B209B933
:1053F00008301B0A190704BF1B090430990704BFB2
:105400009B080230D90703D45B0800F1010003D0E8
:1054100013607047002070472020704710B50C467D
:105420000121FFF709FF024628B9054B054840F264
:10543000451100F0B5FC01234461036110BD00BFBC
:1054400040660008516600082DE9F04FD1F8109031
:10545000D2F810A0D14585B08846144604DB5346E7
:105460000C46CA4690469946A36861680AEB09064D
:10547000B342B8BF0131FFF7DFFE30B90246454BFA
:1054800045484FF4B17100F08BFC00F1140505EBB9
:1054900086072B460022BB421FD304F1140C08F1EF
:1054A00014010CEB8A0301EB890202921A1B153AD4
:1054B00022F0030215349C4288BF00220192029A16
:1054C00003918A420CD8002E03DD57F8043D002BCF
:1054D0005DD0066105B0BDE8F08F43F8042BDAE734
:1054E000B1F800A0BAF1000F24D0E046A9464FF071
:1054F000000E58F8042BD9F800401FFA82FBA4B222
:105500000AFB0B444FEA124BD9F8002074444FEACF
:10551000124E0AFB0BE202EB1442A4B244EA02442C
:10552000434549F8044B4FEA124EE2D8019AAA18B3
:10553000C2F804E0039AB2F802800431B8F1000F17
:1055400023D02A68E6469146AA464FF0000BBEF8E3
:10555000004008FB04B404EB194492B242EA04424E
:105560004AF8042B5EF8042BDAF800904FEA124B4D
:105570001FFA89F208FB0B2202EB144273454FEA33
:10558000124BE4D8019C2C196260043597E7013E68
:1055900099E700BF40660008516600082DE9F8430E
:1055A000174612F0030280460D4607D0264C013AFA
:1055B000002354F82220FFF79FFE0546BF103FD07E
:1055C000D8F81C4094B91020FFF780FD0446C8F8B5
:1055D0001C0030B902461D4B1D4840F2B31100F0CB
:1055E000DFFB0023C0E901330360C360A66846B94E
:1055F00040F271214046FFF711FF0023A0600646EC
:1056000003602C464FF0000907F001037F1053B1EF
:10561000294632464046FFF717FF214605464046D9
:10562000FFF748FE67B1306838B932463146404628
:10563000FFF70AFF3060C0F8009006462C46E3E70B
:105640002846BDE8F88300BF04670008D16500085C
:10565000516600082DE9F84F0C464968236903EBB1
:105660006218A368074615464FEA621A08F1010955
:105670004B450BDB3846FFF7DFFD064648B90246CF
:10568000294B2A484FF4EF7100F08AFB01315B008F
:10569000EEE7002300F1140C00F110021946534507
:1056A00035DB22692AEAEA7A0CEB8A0C04F114034E
:1056B00015F01F0E614603EB82022CD0CEF1200ABA
:1056C000002518688B4600FA0EF02843CBF800003E
:1056D00053F8045B9A4201F1040125FA0AF5F0D867
:1056E000131B153B23F0030304F115018A4238BF55
:1056F00000239C44CCF8045005B9C1463846C6F88E
:1057000010902146FFF7D6FD3046BDE8F88F42F8ED
:10571000041F0133C3E753F8045B0D609A4201F1A3
:105720000401F8D8E9E700BF4066000851660008A8
:105730000A6903460069801A30B50ED1143314315A
:1057400003EB820401EB820154F8045D51F8042D4F
:10575000954203D005D24FF0FF3030BDA342F3D3C2
:10576000FBE70120F9E700002DE9F74F8A460646DE
:10577000114650461446FFF7DBFF051E12D129469D
:105780003046FFF759FD024628B9414B40F2372118
:10579000404800F005FB0123C0E90435104603B082
:1057A000BDE8F08FBCBF5346A2463046DAF804107D
:1057B000BABF1C4601250025FFF73EFD024618B979
:1057C000334B40F24521E3E7DAF810702669C560F3
:1057D0000AF1140904F1140E00F114050AF1100382
:1057E00009EB87080EEB86060193AB464FF0000CE1
:1057F000019B5EF8040B53F804AF01931FFA8AF380
:10580000194683B2CB1A000C6344C0EB1A4000EB7C
:1058100023409BB243EA004376454BF8043B4FEAF2
:10582000204CE5D8331B153B153423F00303A64267
:1058300038BF0023E8184B441C1D04302646A5EB56
:105840000905464506EB050E0ED308F10301091BB9
:1058500021F003010133984538BF0021014451F87C
:10586000043D9BB1176199E756F8041BE2464FEAE5
:1058700011491CFA81FC514409EB2C4989B241EAD7
:1058800009414FEA294CCEF80010DAE7013FE6E77C
:1058900040660008516600082DE9F7430F460121D4
:1058A00059EC108B1646FFF7C7FC044630B9024688
:1058B000234B244840F20F3100F072FAC9F30A5525
:1058C000C9F313030DB143F480130193B8F100033E
:1058D00023D068460093FFF774FD0099D8B1019A70
:1058E000C0F1200302FA03F30B43C240636101924B
:1058F000019BA361002B0CBF012202222261A5B1F2
:10590000A5F2334505443D60C0F1350030602046C6
:1059100003B0BDE8F0836161EAE701A8FFF751FD3C
:10592000019B636120300122E8E704EB8203A0F2CF
:10593000324038601869FFF725FDC0EB4210E5E7FB
:1059400040660008516600082DE9F0478E681F4642
:10595000BE4282460C469046334653D8B1F90C00FD
:1059600010F4906F2BD065692368096905EB450534
:10597000A3EB010905EBD5757B1C6D104B44AB42C5
:105980002A4684BF1D462A46430527D51146504660
:10599000FFF7C6FB064658B321694A46FEF7D7FC17
:1059A000A38923F4906343F08003A381266165619A
:1059B0004E44A5EB09052660A5603E463B461F46C2
:1059C00020683A46414600F0C1F9A3689B1BA360DA
:1059D00023683B4423600020BDE8F087504600F078
:1059E00023FA06460028E1D121695046FFF724FB3F
:1059F0000C23CAF80030A38943F04003A3814FF081
:105A0000FF30E9E73E46DBE72DE9F0471F468B898B
:105A10001B069CB006460D46144610D50B6973B99B
:105A20004021FFF77DFB2860286130B90C233360EB
:105A30004FF0FF301CB0BDE8F08740236B610023BE
:105A4000099320238DF8293003973023654F8DF873
:105A50002A304FF001082346994613F8012B0AB16A
:105A6000252AF9D1B9EB040A0BD053462246294620
:105A70003046FFF769FF013000F0A480099A5244D4
:105A8000099299F80030002B00F09C8000234FF021
:105A9000FF32CDE9052309F10109049307938DF83D
:105AA00053301A934C464F4814F8011B0522FAF75D
:105AB00057FD049BD0B9D80644BF20228DF853204F
:105AC000190744BF2B228DF8532099F800202A2A69
:105AD00013D0079A4C4600204FF00A0C214611F8CB
